{
  "_format": "hh-sol-artifact-1",
  "contractName": "GovernanceToken",
  "sourceName": "contracts/GovernanceToken.sol",
  "abi": [
    {
      "inputs": [],
      "stateMutability": "nonpayable",
      "type": "constructor"
    },
    {
      "anonymous": false,
      "inputs": [
        {
          "indexed": true,
          "internalType": "address",
          "name": "owner",
          "type": "address"
        },
        {
          "indexed": true,
          "internalType": "address",
          "name": "spender",
          "type": "address"
        },
        {
          "indexed": false,
          "internalType": "uint256",
          "name": "value",
          "type": "uint256"
        }
      ],
      "name": "Approval",
      "type": "event"
    },
    {
      "anonymous": false,
      "inputs": [
        {
          "indexed": true,
          "internalType": "address",
          "name": "delegator",
          "type": "address"
        },
        {
          "indexed": true,
          "internalType": "address",
          "name": "fromDelegate",
          "type": "address"
        },
        {
          "indexed": true,
          "internalType": "address",
          "name": "toDelegate",
          "type": "address"
        }
      ],
      "name": "DelegateChanged",
      "type": "event"
    },
    {
      "anonymous": false,
      "inputs": [
        {
          "indexed": true,
          "internalType": "address",
          "name": "delegate",
          "type": "address"
        },
        {
          "indexed": false,
          "internalType": "uint256",
          "name": "previousBalance",
          "type": "uint256"
        },
        {
          "indexed": false,
          "internalType": "uint256",
          "name": "newBalance",
          "type": "uint256"
        }
      ],
      "name": "DelegateVotesChanged",
      "type": "event"
    },
    {
      "anonymous": false,
      "inputs": [
        {
          "indexed": true,
          "internalType": "address",
          "name": "previousOwner",
          "type": "address"
        },
        {
          "indexed": true,
          "internalType": "address",
          "name": "newOwner",
          "type": "address"
        }
      ],
      "name": "OwnershipTransferred",
      "type": "event"
    },
    {
      "anonymous": false,
      "inputs": [
        {
          "indexed": true,
          "internalType": "address",
          "name": "from",
          "type": "address"
        },
        {
          "indexed": true,
          "internalType": "address",
          "name": "to",
          "type": "address"
        },
        {
          "indexed": false,
          "internalType": "uint256",
          "name": "value",
          "type": "uint256"
        }
      ],
      "name": "Transfer",
      "type": "event"
    },
    {
      "inputs": [],
      "name": "DOMAIN_SEPARATOR",
      "outputs": [
        {
          "internalType": "bytes32",
          "name": "",
          "type": "bytes32"
        }
      ],
      "stateMutability": "view",
      "type": "function"
    },
    {
      "inputs": [
        {
          "internalType": "address",
          "name": "owner",
          "type": "address"
        },
        {
          "internalType": "address",
          "name": "spender",
          "type": "address"
        }
      ],
      "name": "allowance",
      "outputs": [
        {
          "internalType": "uint256",
          "name": "",
          "type": "uint256"
        }
      ],
      "stateMutability": "view",
      "type": "function"
    },
    {
      "inputs": [
        {
          "internalType": "address",
          "name": "spender",
          "type": "address"
        },
        {
          "internalType": "uint256",
          "name": "amount",
          "type": "uint256"
        }
      ],
      "name": "approve",
      "outputs": [
        {
          "internalType": "bool",
          "name": "",
          "type": "bool"
        }
      ],
      "stateMutability": "nonpayable",
      "type": "function"
    },
    {
      "inputs": [
        {
          "internalType": "address",
          "name": "account",
          "type": "address"
        }
      ],
      "name": "balanceOf",
      "outputs": [
        {
          "internalType": "uint256",
          "name": "",
          "type": "uint256"
        }
      ],
      "stateMutability": "view",
      "type": "function"
    },
    {
      "inputs": [
        {
          "internalType": "address",
          "name": "account",
          "type": "address"
        },
        {
          "internalType": "uint32",
          "name": "pos",
          "type": "uint32"
        }
      ],
      "name": "checkpoints",
      "outputs": [
        {
          "components": [
            {
              "internalType": "uint32",
              "name": "fromBlock",
              "type": "uint32"
            },
            {
              "internalType": "uint224",
              "name": "votes",
              "type": "uint224"
            }
          ],
          "internalType": "struct ERC20Votes.Checkpoint",
          "name": "",
          "type": "tuple"
        }
      ],
      "stateMutability": "view",
      "type": "function"
    },
    {
      "inputs": [],
      "name": "decimals",
      "outputs": [
        {
          "internalType": "uint8",
          "name": "",
          "type": "uint8"
        }
      ],
      "stateMutability": "view",
      "type": "function"
    },
    {
      "inputs": [
        {
          "internalType": "address",
          "name": "spender",
          "type": "address"
        },
        {
          "internalType": "uint256",
          "name": "subtractedValue",
          "type": "uint256"
        }
      ],
      "name": "decreaseAllowance",
      "outputs": [
        {
          "internalType": "bool",
          "name": "",
          "type": "bool"
        }
      ],
      "stateMutability": "nonpayable",
      "type": "function"
    },
    {
      "inputs": [
        {
          "internalType": "address",
          "name": "delegatee",
          "type": "address"
        }
      ],
      "name": "delegate",
      "outputs": [],
      "stateMutability": "nonpayable",
      "type": "function"
    },
    {
      "inputs": [
        {
          "internalType": "address",
          "name": "delegatee",
          "type": "address"
        },
        {
          "internalType": "uint256",
          "name": "nonce",
          "type": "uint256"
        },
        {
          "internalType": "uint256",
          "name": "expiry",
          "type": "uint256"
        },
        {
          "internalType": "uint8",
          "name": "v",
          "type": "uint8"
        },
        {
          "internalType": "bytes32",
          "name": "r",
          "type": "bytes32"
        },
        {
          "internalType": "bytes32",
          "name": "s",
          "type": "bytes32"
        }
      ],
      "name": "delegateBySig",
      "outputs": [],
      "stateMutability": "nonpayable",
      "type": "function"
    },
    {
      "inputs": [
        {
          "internalType": "address",
          "name": "account",
          "type": "address"
        }
      ],
      "name": "delegates",
      "outputs": [
        {
          "internalType": "address",
          "name": "",
          "type": "address"
        }
      ],
      "stateMutability": "view",
      "type": "function"
    },
    {
      "inputs": [
        {
          "internalType": "uint256",
          "name": "blockNumber",
          "type": "uint256"
        }
      ],
      "name": "getPastTotalSupply",
      "outputs": [
        {
          "internalType": "uint256",
          "name": "",
          "type": "uint256"
        }
      ],
      "stateMutability": "view",
      "type": "function"
    },
    {
      "inputs": [
        {
          "internalType": "address",
          "name": "account",
          "type": "address"
        },
        {
          "internalType": "uint256",
          "name": "blockNumber",
          "type": "uint256"
        }
      ],
      "name": "getPastVotes",
      "outputs": [
        {
          "internalType": "uint256",
          "name": "",
          "type": "uint256"
        }
      ],
      "stateMutability": "view",
      "type": "function"
    },
    {
      "inputs": [
        {
          "internalType": "address",
          "name": "account",
          "type": "address"
        }
      ],
      "name": "getVotes",
      "outputs": [
        {
          "internalType": "uint256",
          "name": "",
          "type": "uint256"
        }
      ],
      "stateMutability": "view",
      "type": "function"
    },
    {
      "inputs": [
        {
          "internalType": "address",
          "name": "spender",
          "type": "address"
        },
        {
          "internalType": "uint256",
          "name": "addedValue",
          "type": "uint256"
        }
      ],
      "name": "increaseAllowance",
      "outputs": [
        {
          "internalType": "bool",
          "name": "",
          "type": "bool"
        }
      ],
      "stateMutability": "nonpayable",
      "type": "function"
    },
    {
      "inputs": [],
      "name": "name",
      "outputs": [
        {
          "internalType": "string",
          "name": "",
          "type": "string"
        }
      ],
      "stateMutability": "view",
      "type": "function"
    },
    {
      "inputs": [
        {
          "internalType": "address",
          "name": "owner",
          "type": "address"
        }
      ],
      "name": "nonces",
      "outputs": [
        {
          "internalType": "uint256",
          "name": "",
          "type": "uint256"
        }
      ],
      "stateMutability": "view",
      "type": "function"
    },
    {
      "inputs": [
        {
          "internalType": "address",
          "name": "account",
          "type": "address"
        }
      ],
      "name": "numCheckpoints",
      "outputs": [
        {
          "internalType": "uint32",
          "name": "",
          "type": "uint32"
        }
      ],
      "stateMutability": "view",
      "type": "function"
    },
    {
      "inputs": [],
      "name": "owner",
      "outputs": [
        {
          "internalType": "address",
          "name": "",
          "type": "address"
        }
      ],
      "stateMutability": "view",
      "type": "function"
    },
    {
      "inputs": [
        {
          "internalType": "address",
          "name": "owner",
          "type": "address"
        },
        {
          "internalType": "address",
          "name": "spender",
          "type": "address"
        },
        {
          "internalType": "uint256",
          "name": "value",
          "type": "uint256"
        },
        {
          "internalType": "uint256",
          "name": "deadline",
          "type": "uint256"
        },
        {
          "internalType": "uint8",
          "name": "v",
          "type": "uint8"
        },
        {
          "internalType": "bytes32",
          "name": "r",
          "type": "bytes32"
        },
        {
          "internalType": "bytes32",
          "name": "s",
          "type": "bytes32"
        }
      ],
      "name": "permit",
      "outputs": [],
      "stateMutability": "nonpayable",
      "type": "function"
    },
    {
      "inputs": [],
      "name": "renounceOwnership",
      "outputs": [],
      "stateMutability": "nonpayable",
      "type": "function"
    },
    {
      "inputs": [],
      "name": "symbol",
      "outputs": [
        {
          "internalType": "string",
          "name": "",
          "type": "string"
        }
      ],
      "stateMutability": "view",
      "type": "function"
    },
    {
      "inputs": [],
      "name": "totalSupply",
      "outputs": [
        {
          "internalType": "uint256",
          "name": "",
          "type": "uint256"
        }
      ],
      "stateMutability": "view",
      "type": "function"
    },
    {
      "inputs": [
        {
          "internalType": "address",
          "name": "to",
          "type": "address"
        },
        {
          "internalType": "uint256",
          "name": "amount",
          "type": "uint256"
        }
      ],
      "name": "transfer",
      "outputs": [
        {
          "internalType": "bool",
          "name": "",
          "type": "bool"
        }
      ],
      "stateMutability": "nonpayable",
      "type": "function"
    },
    {
      "inputs": [
        {
          "internalType": "address",
          "name": "from",
          "type": "address"
        },
        {
          "internalType": "address",
          "name": "to",
          "type": "address"
        },
        {
          "internalType": "uint256",
          "name": "amount",
          "type": "uint256"
        }
      ],
      "name": "transferFrom",
      "outputs": [
        {
          "internalType": "bool",
          "name": "",
          "type": "bool"
        }
      ],
      "stateMutability": "nonpayable",
      "type": "function"
    },
    {
      "inputs": [
        {
          "internalType": "address",
          "name": "newOwner",
          "type": "address"
        }
      ],
      "name": "transferOwnership",
      "outputs": [],
      "stateMutability": "nonpayable",
      "type": "function"
    }
  ],
  "bytecode": "0x6101406040523480156200001257600080fd5b506040518060400160405280600781526020016626bcaa37b5b2b760c91b81525080604051806040016040528060018152602001603160f81b8152506040518060400160405280600781526020016626bcaa37b5b2b760c91b815250604051806040016040528060038152602001624d544b60e81b8152508160039080519060200190620000a2929190620007bb565b508051620000b8906004906020840190620007bb565b5050825160209384012082519284019290922060e08390526101008190524660a0818152604080517f8b73c3c69bb8fe3d512ecc4cf759cc79239f7b179b0ffacaa9a75d522b39400f818901819052818301979097526060810194909452608080850193909352308483018190528151808603909301835260c0948501909152815191909601209052929092526101205250620001579050336200016b565b62000165336103e8620001bd565b620008f5565b600a80546001600160a01b038381166001600160a01b0319831681179093556040519116919082907f8be0079c531659141344cd1fd0a4f28419497f9722a3daafe3b4186f6b6457e090600090a35050565b620001d48282620001d860201b62000b831760201c565b5050565b620001ef82826200028f60201b62000c201760201c565b6001600160e01b03620002036200037e8216565b1115620002705760405162461bcd60e51b815260206004820152603060248201527f4552433230566f7465733a20746f74616c20737570706c79207269736b73206f60448201526f766572666c6f77696e6720766f74657360801b60648201526084015b60405180910390fd5b62000289600962000d0b6200038460201b178362000399565b50505050565b6001600160a01b038216620002e75760405162461bcd60e51b815260206004820152601f60248201527f45524332303a206d696e7420746f20746865207a65726f206164647265737300604482015260640162000267565b8060026000828254620002fb91906200086d565b90915550506001600160a01b038216600090815260208190526040812080548392906200032a9084906200086d565b90915550506040518181526001600160a01b038316906000907fddf252ad1be2c89b69c2b068fc378daa952ba7f163c4a11628f55a4df523b3ef9060200160405180910390a3620001d46000838362000550565b60025490565b60006200039282846200086d565b9392505050565b825460009081908015620003eb5785620003b560018362000888565b81548110620003c857620003c8620008a2565b60009182526020909120015464010000000090046001600160e01b0316620003ee565b60005b6001600160e01b031692506200040583858760201c565b915060008111801562000449575043866200042260018462000888565b81548110620004355762000435620008a2565b60009182526020909120015463ffffffff16145b15620004bd5762000465826200056860201b62000d171760201c565b866200047360018462000888565b81548110620004865762000486620008a2565b9060005260206000200160000160046101000a8154816001600160e01b0302191690836001600160e01b0316021790555062000542565b856040518060400160405280620004df43620005d760201b62000d9a1760201c565b63ffffffff16815260200162000500856200056860201b62000d171760201c565b6001600160e01b0390811690915282546001810184556000938452602093849020835194909301519091166401000000000263ffffffff909316929092179101555b50935093915050565b505050565b6200054b8383836200063e60201b62000e161760201c565b60006001600160e01b03821115620005d35760405162461bcd60e51b815260206004820152602760248201527f53616665436173743a2076616c756520646f65736e27742066697420696e20326044820152663234206269747360c81b606482015260840162000267565b5090565b600063ffffffff821115620005d35760405162461bcd60e51b815260206004820152602660248201527f53616665436173743a2076616c756520646f65736e27742066697420696e203360448201526532206269747360d01b606482015260840162000267565b620006568383836200054b60201b62000e481760201c565b6001600160a01b038381166000908152600760205260408082205485841683529120546200054b92918216911683818314801590620006955750600081115b156200054b576001600160a01b0383161562000722576001600160a01b038316600090815260086020908152604082208291620006df9190620007ad901b62000e4d178562000399565b91509150846001600160a01b03166000805160206200284e833981519152838360405162000717929190918252602082015260400190565b60405180910390a250505b6001600160a01b038216156200054b576001600160a01b03821660009081526008602090815260408220829162000766919062000384901b62000d0b178562000399565b91509150836001600160a01b03166000805160206200284e83398151915283836040516200079e929190918252602082015260400190565b60405180910390a25050505050565b600062000392828462000888565b828054620007c990620008b8565b90600052602060002090601f016020900481019282620007ed576000855562000838565b82601f106200080857805160ff191683800117855562000838565b8280016001018555821562000838579182015b82811115620008385782518255916020019190600101906200081b565b50620005d39291505b80821115620005d3576000815560010162000841565b634e487b7160e01b600052601160045260246000fd5b6000821982111562000883576200088362000857565b500190565b6000828210156200089d576200089d62000857565b500390565b634e487b7160e01b600052603260045260246000fd5b600181811c90821680620008cd57607f821691505b60208210811415620008ef57634e487b7160e01b600052602260045260246000fd5b50919050565b60805160a05160c05160e0516101005161012051611f096200094560003960006112e4015260006113330152600061130e0152600061126701526000611291015260006112bb0152611f096000f3fe608060405234801561001057600080fd5b50600436106101a35760003560e01c8063715018a6116100ee578063a457c2d711610097578063d505accf11610071578063d505accf14610388578063dd62ed3e1461039b578063f1127ed8146103d4578063f2fde38b1461041157600080fd5b8063a457c2d71461034f578063a9059cbb14610362578063c3cda5201461037557600080fd5b80638e539e8c116100c85780638e539e8c1461032157806395d89b41146103345780639ab24eb01461033c57600080fd5b8063715018a6146102f55780637ecebe00146102fd5780638da5cb5b1461031057600080fd5b806339509351116101505780635c19a95c1161012a5780635c19a95c1461028f5780636fcfff45146102a457806370a08231146102cc57600080fd5b806339509351146102255780633a46b1a814610238578063587cde1e1461024b57600080fd5b806323b872dd1161018157806323b872dd146101fb578063313ce5671461020e5780633644e5151461021d57600080fd5b806306fdde03146101a8578063095ea7b3146101c657806318160ddd146101e9575b600080fd5b6101b0610424565b6040516101bd9190611bba565b60405180910390f35b6101d96101d4366004611c2b565b6104b6565b60405190151581526020016101bd565b6002545b6040519081526020016101bd565b6101d9610209366004611c55565b6104ce565b604051601281526020016101bd565b6101ed6104f2565b6101d9610233366004611c2b565b610501565b6101ed610246366004611c2b565b610540565b610277610259366004611c91565b6001600160a01b039081166000908152600760205260409020541690565b6040516001600160a01b0390911681526020016101bd565b6102a261029d366004611c91565b6105bf565b005b6102b76102b2366004611c91565b6105cc565b60405163ffffffff90911681526020016101bd565b6101ed6102da366004611c91565b6001600160a01b031660009081526020819052604090205490565b6102a26105f4565b6101ed61030b366004611c91565b610608565b600a546001600160a01b0316610277565b6101ed61032f366004611cac565b610626565b6101b0610682565b6101ed61034a366004611c91565b610691565b6101d961035d366004611c2b565b610718565b6101d9610370366004611c2b565b6107c2565b6102a2610383366004611cd6565b6107d8565b6102a2610396366004611d2e565b61090e565b6101ed6103a9366004611d98565b6001600160a01b03918216600090815260016020908152604080832093909416825291909152205490565b6103e76103e2366004611dcb565b610a72565b60408051825163ffffffff1681526020928301516001600160e01b031692810192909252016101bd565b6102a261041f366004611c91565b610af6565b60606003805461043390611e0b565b80601f016020809104026020016040519081016040528092919081815260200182805461045f90611e0b565b80156104ac5780601f10610481576101008083540402835291602001916104ac565b820191906000526020600020905b81548152906001019060200180831161048f57829003601f168201915b5050505050905090565b6000336104c4818585610e59565b5060019392505050565b6000336104dc858285610fb1565b6104e785858561103d565b506001949350505050565b60006104fc61125a565b905090565b3360008181526001602090815260408083206001600160a01b03871684529091528120549091906104c4908290869061053b908790611e56565b610e59565b60004382106105965760405162461bcd60e51b815260206004820152601f60248201527f4552433230566f7465733a20626c6f636b206e6f7420796574206d696e65640060448201526064015b60405180910390fd5b6001600160a01b03831660009081526008602052604090206105b89083611381565b9392505050565b6105c9338261143e565b50565b6001600160a01b0381166000908152600860205260408120546105ee90610d9a565b92915050565b6105fc6114c4565b610606600061151e565b565b6001600160a01b0381166000908152600560205260408120546105ee565b60004382106106775760405162461bcd60e51b815260206004820152601f60248201527f4552433230566f7465733a20626c6f636b206e6f7420796574206d696e656400604482015260640161058d565b6105ee600983611381565b60606004805461043390611e0b565b6001600160a01b0381166000908152600860205260408120548015610705576001600160a01b03831660009081526008602052604090206106d3600183611e6e565b815481106106e3576106e3611e85565b60009182526020909120015464010000000090046001600160e01b0316610708565b60005b6001600160e01b03169392505050565b3360008181526001602090815260408083206001600160a01b0387168452909152812054909190838110156107b55760405162461bcd60e51b815260206004820152602560248201527f45524332303a2064656372656173656420616c6c6f77616e63652062656c6f7760448201527f207a65726f000000000000000000000000000000000000000000000000000000606482015260840161058d565b6104e78286868403610e59565b60006107cc6114c4565b336104c481858561103d565b834211156108285760405162461bcd60e51b815260206004820152601d60248201527f4552433230566f7465733a207369676e61747572652065787069726564000000604482015260640161058d565b604080517fe48329057bfd03d55e49b547132e39cffd9c1820ad7b9d4c5307691425d15adf60208201526001600160a01b0388169181019190915260608101869052608081018590526000906108a29061089a9060a0016040516020818303038152906040528051906020012061157d565b8585856115e6565b90506108ad8161160e565b86146108fb5760405162461bcd60e51b815260206004820152601960248201527f4552433230566f7465733a20696e76616c6964206e6f6e636500000000000000604482015260640161058d565b610905818861143e565b50505050505050565b8342111561095e5760405162461bcd60e51b815260206004820152601d60248201527f45524332305065726d69743a206578706972656420646561646c696e65000000604482015260640161058d565b60007f6e71edae12b1b97f4d1f60370fef10105fa2faae0126114a169c64845d6126c988888861098d8c61160e565b6040805160208101969096526001600160a01b0394851690860152929091166060840152608083015260a082015260c0810186905260e00160405160208183030381529060405280519060200120905060006109e88261157d565b905060006109f8828787876115e6565b9050896001600160a01b0316816001600160a01b031614610a5b5760405162461bcd60e51b815260206004820152601e60248201527f45524332305065726d69743a20696e76616c6964207369676e61747572650000604482015260640161058d565b610a668a8a8a610e59565b50505050505050505050565b60408051808201909152600080825260208201526001600160a01b0383166000908152600860205260409020805463ffffffff8416908110610ab657610ab6611e85565b60009182526020918290206040805180820190915291015463ffffffff8116825264010000000090046001600160e01b0316918101919091529392505050565b610afe6114c4565b6001600160a01b038116610b7a5760405162461bcd60e51b815260206004820152602660248201527f4f776e61626c653a206e6577206f776e657220697320746865207a65726f206160448201527f6464726573730000000000000000000000000000000000000000000000000000606482015260840161058d565b6105c98161151e565b610b8d8282610c20565b6002546001600160e01b031015610c0c5760405162461bcd60e51b815260206004820152603060248201527f4552433230566f7465733a20746f74616c20737570706c79207269736b73206f60448201527f766572666c6f77696e6720766f74657300000000000000000000000000000000606482015260840161058d565b610c1a6009610d0b83611636565b50505050565b6001600160a01b038216610c765760405162461bcd60e51b815260206004820152601f60248201527f45524332303a206d696e7420746f20746865207a65726f206164647265737300604482015260640161058d565b8060026000828254610c889190611e56565b90915550506001600160a01b03821660009081526020819052604081208054839290610cb5908490611e56565b90915550506040518181526001600160a01b038316906000907fddf252ad1be2c89b69c2b068fc378daa952ba7f163c4a11628f55a4df523b3ef9060200160405180910390a3610d07600083836117af565b5050565b60006105b88284611e56565b60006001600160e01b03821115610d965760405162461bcd60e51b815260206004820152602760248201527f53616665436173743a2076616c756520646f65736e27742066697420696e203260448201527f3234206269747300000000000000000000000000000000000000000000000000606482015260840161058d565b5090565b600063ffffffff821115610d965760405162461bcd60e51b815260206004820152602660248201527f53616665436173743a2076616c756520646f65736e27742066697420696e203360448201527f3220626974730000000000000000000000000000000000000000000000000000606482015260840161058d565b6001600160a01b03838116600090815260076020526040808220548584168352912054610e48929182169116836117ba565b505050565b60006105b88284611e6e565b6001600160a01b038316610ed45760405162461bcd60e51b8152602060048201526024808201527f45524332303a20617070726f76652066726f6d20746865207a65726f2061646460448201527f7265737300000000000000000000000000000000000000000000000000000000606482015260840161058d565b6001600160a01b038216610f505760405162461bcd60e51b815260206004820152602260248201527f45524332303a20617070726f766520746f20746865207a65726f20616464726560448201527f7373000000000000000000000000000000000000000000000000000000000000606482015260840161058d565b6001600160a01b0383811660008181526001602090815260408083209487168084529482529182902085905590518481527f8c5be1e5ebec7d5bd14f71427d1e84f3dd0314c0f7b2291e5b200ac8c7c3b925910160405180910390a3505050565b6001600160a01b038381166000908152600160209081526040808320938616835292905220546000198114610c1a57818110156110305760405162461bcd60e51b815260206004820152601d60248201527f45524332303a20696e73756666696369656e7420616c6c6f77616e6365000000604482015260640161058d565b610c1a8484848403610e59565b6001600160a01b0383166110b95760405162461bcd60e51b815260206004820152602560248201527f45524332303a207472616e736665722066726f6d20746865207a65726f20616460448201527f6472657373000000000000000000000000000000000000000000000000000000606482015260840161058d565b6001600160a01b0382166111355760405162461bcd60e51b815260206004820152602360248201527f45524332303a207472616e7366657220746f20746865207a65726f206164647260448201527f6573730000000000000000000000000000000000000000000000000000000000606482015260840161058d565b6001600160a01b038316600090815260208190526040902054818110156111c45760405162461bcd60e51b815260206004820152602660248201527f45524332303a207472616e7366657220616d6f756e742065786365656473206260448201527f616c616e63650000000000000000000000000000000000000000000000000000606482015260840161058d565b6001600160a01b038085166000908152602081905260408082208585039055918516815290812080548492906111fb908490611e56565b92505081905550826001600160a01b0316846001600160a01b03167fddf252ad1be2c89b69c2b068fc378daa952ba7f163c4a11628f55a4df523b3ef8460405161124791815260200190565b60405180910390a3610c1a8484846117af565b6000306001600160a01b037f0000000000000000000000000000000000000000000000000000000000000000161480156112b357507f000000000000000000000000000000000000000000000000000000000000000046145b156112dd57507f000000000000000000000000000000000000000000000000000000000000000090565b50604080517f00000000000000000000000000000000000000000000000000000000000000006020808301919091527f0000000000000000000000000000000000000000000000000000000000000000828401527f000000000000000000000000000000000000000000000000000000000000000060608301524660808301523060a0808401919091528351808403909101815260c0909201909252805191012090565b8154600090815b818110156113e557600061139c82846118f7565b9050848682815481106113b1576113b1611e85565b60009182526020909120015463ffffffff1611156113d1578092506113df565b6113dc816001611e56565b91505b50611388565b811561142957846113f7600184611e6e565b8154811061140757611407611e85565b60009182526020909120015464010000000090046001600160e01b031661142c565b60005b6001600160e01b031695945050505050565b6001600160a01b0382811660008181526007602081815260408084208054858452828620549490935287871673ffffffffffffffffffffffffffffffffffffffff198416811790915590519190951694919391928592917f3134e8a2e6d97e929a7e54011ea5485d7d196dd5f0ba4d4ef95803e8e3fc257f9190a4610c1a8284836117ba565b600a546001600160a01b031633146106065760405162461bcd60e51b815260206004820181905260248201527f4f776e61626c653a2063616c6c6572206973206e6f7420746865206f776e6572604482015260640161058d565b600a80546001600160a01b0383811673ffffffffffffffffffffffffffffffffffffffff19831681179093556040519116919082907f8be0079c531659141344cd1fd0a4f28419497f9722a3daafe3b4186f6b6457e090600090a35050565b60006105ee61158a61125a565b836040517f19010000000000000000000000000000000000000000000000000000000000006020820152602281018390526042810182905260009060620160405160208183030381529060405280519060200120905092915050565b60008060006115f787878787611912565b91509150611604816119ff565b5095945050505050565b6001600160a01b03811660009081526005602052604090208054600181018255905b50919050565b825460009081908015611681578561164f600183611e6e565b8154811061165f5761165f611e85565b60009182526020909120015464010000000090046001600160e01b0316611684565b60005b6001600160e01b0316925061169d83858763ffffffff16565b91506000811180156116db575043866116b7600184611e6e565b815481106116c7576116c7611e85565b60009182526020909120015463ffffffff16145b1561173b576116e982610d17565b866116f5600184611e6e565b8154811061170557611705611e85565b9060005260206000200160000160046101000a8154816001600160e01b0302191690836001600160e01b031602179055506117a6565b85604051806040016040528061175043610d9a565b63ffffffff16815260200161176485610d17565b6001600160e01b0390811690915282546001810184556000938452602093849020835194909301519091166401000000000263ffffffff909316929092179101555b50935093915050565b610e48838383610e16565b816001600160a01b0316836001600160a01b0316141580156117dc5750600081115b15610e48576001600160a01b0383161561186a576001600160a01b0383166000908152600860205260408120819061181790610e4d85611636565b91509150846001600160a01b03167fdec2bacdd2f05b59de34da9b523dff8be42e5e38e818c82fdb0bae774387a724838360405161185f929190918252602082015260400190565b60405180910390a250505b6001600160a01b03821615610e48576001600160a01b038216600090815260086020526040812081906118a090610d0b85611636565b91509150836001600160a01b03167fdec2bacdd2f05b59de34da9b523dff8be42e5e38e818c82fdb0bae774387a72483836040516118e8929190918252602082015260400190565b60405180910390a25050505050565b60006119066002848418611e9b565b6105b890848416611e56565b6000807f7fffffffffffffffffffffffffffffff5d576e7357a4501ddfe92f46681b20a083111561194957506000905060036119f6565b8460ff16601b1415801561196157508460ff16601c14155b1561197257506000905060046119f6565b6040805160008082526020820180845289905260ff881692820192909252606081018690526080810185905260019060a0016020604051602081039080840390855afa1580156119c6573d6000803e3d6000fd5b5050604051601f1901519150506001600160a01b0381166119ef576000600192509250506119f6565b9150600090505b94509492505050565b6000816004811115611a1357611a13611ebd565b1415611a1c5750565b6001816004811115611a3057611a30611ebd565b1415611a7e5760405162461bcd60e51b815260206004820152601860248201527f45434453413a20696e76616c6964207369676e61747572650000000000000000604482015260640161058d565b6002816004811115611a9257611a92611ebd565b1415611ae05760405162461bcd60e51b815260206004820152601f60248201527f45434453413a20696e76616c6964207369676e6174757265206c656e67746800604482015260640161058d565b6003816004811115611af457611af4611ebd565b1415611b4d5760405162461bcd60e51b815260206004820152602260248201527f45434453413a20696e76616c6964207369676e6174757265202773272076616c604482015261756560f01b606482015260840161058d565b6004816004811115611b6157611b61611ebd565b14156105c95760405162461bcd60e51b815260206004820152602260248201527f45434453413a20696e76616c6964207369676e6174757265202776272076616c604482015261756560f01b606482015260840161058d565b600060208083528351808285015260005b81811015611be757858101830151858201604001528201611bcb565b81811115611bf9576000604083870101525b50601f01601f1916929092016040019392505050565b80356001600160a01b0381168114611c2657600080fd5b919050565b60008060408385031215611c3e57600080fd5b611c4783611c0f565b946020939093013593505050565b600080600060608486031215611c6a57600080fd5b611c7384611c0f565b9250611c8160208501611c0f565b9150604084013590509250925092565b600060208284031215611ca357600080fd5b6105b882611c0f565b600060208284031215611cbe57600080fd5b5035919050565b803560ff81168114611c2657600080fd5b60008060008060008060c08789031215611cef57600080fd5b611cf887611c0f565b95506020870135945060408701359350611d1460608801611cc5565b92506080870135915060a087013590509295509295509295565b600080600080600080600060e0888a031215611d4957600080fd5b611d5288611c0f565b9650611d6060208901611c0f565b95506040880135945060608801359350611d7c60808901611cc5565b925060a0880135915060c0880135905092959891949750929550565b60008060408385031215611dab57600080fd5b611db483611c0f565b9150611dc260208401611c0f565b90509250929050565b60008060408385031215611dde57600080fd5b611de783611c0f565b9150602083013563ffffffff81168114611e0057600080fd5b809150509250929050565b600181811c90821680611e1f57607f821691505b6020821081141561163057634e487b7160e01b600052602260045260246000fd5b634e487b7160e01b600052601160045260246000fd5b60008219821115611e6957611e69611e40565b500190565b600082821015611e8057611e80611e40565b500390565b634e487b7160e01b600052603260045260246000fd5b600082611eb857634e487b7160e01b600052601260045260246000fd5b500490565b634e487b7160e01b600052602160045260246000fdfea26469706673582212203ade98737534938112a4a1266d5b549e8dc6ef59fdc3f609a2de744c35826fd964736f6c63430008090033dec2bacdd2f05b59de34da9b523dff8be42e5e38e818c82fdb0bae774387a724",
  "linkReferences": {},
  "deployedLinkReferences": {}
}