{
  "_format": "hh-sol-artifact-1",
  "contractName": "GovernorContract",
  "sourceName": "contracts/GovernorContract.sol",
  "abi": [
    {
      "inputs": [
        {
          "internalType": "address",
          "name": "_token",
          "type": "address"
        }
      ],
      "stateMutability": "nonpayable",
      "type": "constructor"
    },
    {
      "anonymous": false,
      "inputs": [
        {
          "indexed": true,
          "internalType": "bytes32",
          "name": "role",
          "type": "bytes32"
        },
        {
          "indexed": true,
          "internalType": "bytes32",
          "name": "previousAdminRole",
          "type": "bytes32"
        },
        {
          "indexed": true,
          "internalType": "bytes32",
          "name": "newAdminRole",
          "type": "bytes32"
        }
      ],
      "name": "RoleAdminChanged",
      "type": "event"
    },
    {
      "anonymous": false,
      "inputs": [
        {
          "indexed": true,
          "internalType": "bytes32",
          "name": "role",
          "type": "bytes32"
        },
        {
          "indexed": true,
          "internalType": "address",
          "name": "account",
          "type": "address"
        },
        {
          "indexed": true,
          "internalType": "address",
          "name": "sender",
          "type": "address"
        }
      ],
      "name": "RoleGranted",
      "type": "event"
    },
    {
      "anonymous": false,
      "inputs": [
        {
          "indexed": true,
          "internalType": "bytes32",
          "name": "role",
          "type": "bytes32"
        },
        {
          "indexed": true,
          "internalType": "address",
          "name": "account",
          "type": "address"
        },
        {
          "indexed": true,
          "internalType": "address",
          "name": "sender",
          "type": "address"
        }
      ],
      "name": "RoleRevoked",
      "type": "event"
    },
    {
      "inputs": [],
      "name": "DEFAULT_ADMIN_ROLE",
      "outputs": [
        {
          "internalType": "bytes32",
          "name": "",
          "type": "bytes32"
        }
      ],
      "stateMutability": "view",
      "type": "function"
    },
    {
      "inputs": [],
      "name": "DELEGATE",
      "outputs": [
        {
          "internalType": "bytes32",
          "name": "",
          "type": "bytes32"
        }
      ],
      "stateMutability": "view",
      "type": "function"
    },
    {
      "inputs": [],
      "name": "MEMBER",
      "outputs": [
        {
          "internalType": "bytes32",
          "name": "",
          "type": "bytes32"
        }
      ],
      "stateMutability": "view",
      "type": "function"
    },
    {
      "inputs": [],
      "name": "allProposals",
      "outputs": [
        {
          "components": [
            {
              "internalType": "uint256",
              "name": "id",
              "type": "uint256"
            },
            {
              "internalType": "string",
              "name": "title",
              "type": "string"
            },
            {
              "internalType": "string",
              "name": "description",
              "type": "string"
            },
            {
              "internalType": "uint256",
              "name": "startTime",
              "type": "uint256"
            },
            {
              "internalType": "uint256",
              "name": "endTime",
              "type": "uint256"
            },
            {
              "internalType": "address",
              "name": "proposer",
              "type": "address"
            },
            {
              "internalType": "address",
              "name": "reciver",
              "type": "address"
            },
            {
              "internalType": "uint256",
              "name": "voteFor",
              "type": "uint256"
            },
            {
              "internalType": "uint256",
              "name": "voteAganist",
              "type": "uint256"
            },
            {
              "internalType": "bool",
              "name": "voteEnd",
              "type": "bool"
            },
            {
              "internalType": "bool",
              "name": "isQueued",
              "type": "bool"
            },
            {
              "internalType": "bool",
              "name": "isExecuted",
              "type": "bool"
            },
            {
              "internalType": "bool",
              "name": "isCancel",
              "type": "bool"
            }
          ],
          "internalType": "struct GovernorContract.Proposals[]",
          "name": "",
          "type": "tuple[]"
        }
      ],
      "stateMutability": "view",
      "type": "function"
    },
    {
      "inputs": [
        {
          "internalType": "uint256",
          "name": "_proposalId",
          "type": "uint256"
        }
      ],
      "name": "checkStatus",
      "outputs": [],
      "stateMutability": "nonpayable",
      "type": "function"
    },
    {
      "inputs": [
        {
          "internalType": "string",
          "name": "_title",
          "type": "string"
        },
        {
          "internalType": "string",
          "name": "_description",
          "type": "string"
        },
        {
          "internalType": "address",
          "name": "rec",
          "type": "address"
        }
      ],
      "name": "createProposal",
      "outputs": [],
      "stateMutability": "nonpayable",
      "type": "function"
    },
    {
      "inputs": [
        {
          "internalType": "uint256",
          "name": "_proposalId",
          "type": "uint256"
        }
      ],
      "name": "executeProposal",
      "outputs": [
        {
          "internalType": "bool",
          "name": "",
          "type": "bool"
        }
      ],
      "stateMutability": "nonpayable",
      "type": "function"
    },
    {
      "inputs": [
        {
          "internalType": "bytes32",
          "name": "role",
          "type": "bytes32"
        }
      ],
      "name": "getRoleAdmin",
      "outputs": [
        {
          "internalType": "bytes32",
          "name": "",
          "type": "bytes32"
        }
      ],
      "stateMutability": "view",
      "type": "function"
    },
    {
      "inputs": [
        {
          "internalType": "uint256",
          "name": "_proposalId",
          "type": "uint256"
        }
      ],
      "name": "getStatus",
      "outputs": [
        {
          "internalType": "uint256",
          "name": "",
          "type": "uint256"
        },
        {
          "internalType": "uint256",
          "name": "",
          "type": "uint256"
        },
        {
          "internalType": "uint256",
          "name": "",
          "type": "uint256"
        }
      ],
      "stateMutability": "view",
      "type": "function"
    },
    {
      "inputs": [
        {
          "internalType": "uint256",
          "name": "_proposalId",
          "type": "uint256"
        }
      ],
      "name": "getVoters",
      "outputs": [
        {
          "internalType": "uint256",
          "name": "",
          "type": "uint256"
        },
        {
          "internalType": "address[]",
          "name": "",
          "type": "address[]"
        },
        {
          "internalType": "address[]",
          "name": "",
          "type": "address[]"
        }
      ],
      "stateMutability": "view",
      "type": "function"
    },
    {
      "inputs": [
        {
          "internalType": "bytes32",
          "name": "role",
          "type": "bytes32"
        },
        {
          "internalType": "address",
          "name": "account",
          "type": "address"
        }
      ],
      "name": "grantRole",
      "outputs": [],
      "stateMutability": "nonpayable",
      "type": "function"
    },
    {
      "inputs": [
        {
          "internalType": "bytes32",
          "name": "role",
          "type": "bytes32"
        },
        {
          "internalType": "address",
          "name": "account",
          "type": "address"
        }
      ],
      "name": "hasRole",
      "outputs": [
        {
          "internalType": "bool",
          "name": "",
          "type": "bool"
        }
      ],
      "stateMutability": "view",
      "type": "function"
    },
    {
      "inputs": [],
      "name": "numProposal",
      "outputs": [
        {
          "internalType": "uint256",
          "name": "",
          "type": "uint256"
        }
      ],
      "stateMutability": "view",
      "type": "function"
    },
    {
      "inputs": [
        {
          "internalType": "bytes32",
          "name": "role",
          "type": "bytes32"
        },
        {
          "internalType": "address",
          "name": "account",
          "type": "address"
        }
      ],
      "name": "renounceRole",
      "outputs": [],
      "stateMutability": "nonpayable",
      "type": "function"
    },
    {
      "inputs": [
        {
          "internalType": "bytes32",
          "name": "role",
          "type": "bytes32"
        },
        {
          "internalType": "address",
          "name": "account",
          "type": "address"
        }
      ],
      "name": "revokeRole",
      "outputs": [],
      "stateMutability": "nonpayable",
      "type": "function"
    },
    {
      "inputs": [],
      "name": "setupRole",
      "outputs": [],
      "stateMutability": "nonpayable",
      "type": "function"
    },
    {
      "inputs": [
        {
          "internalType": "uint256",
          "name": "_proposalId",
          "type": "uint256"
        },
        {
          "internalType": "uint256",
          "name": "decision",
          "type": "uint256"
        }
      ],
      "name": "startVotes",
      "outputs": [],
      "stateMutability": "nonpayable",
      "type": "function"
    },
    {
      "inputs": [
        {
          "internalType": "bytes4",
          "name": "interfaceId",
          "type": "bytes4"
        }
      ],
      "name": "supportsInterface",
      "outputs": [
        {
          "internalType": "bool",
          "name": "",
          "type": "bool"
        }
      ],
      "stateMutability": "view",
      "type": "function"
    },
    {
      "inputs": [],
      "name": "token",
      "outputs": [
        {
          "internalType": "contract GovernanceToken",
          "name": "",
          "type": "address"
        }
      ],
      "stateMutability": "view",
      "type": "function"
    }
  ],
  "bytecode": "0x6080604052600060055534801561001557600080fd5b506040516200212c3803806200212c8339810160408190526100369161005b565b600180546001600160a01b0319166001600160a01b039290921691909117905561008b565b60006020828403121561006d57600080fd5b81516001600160a01b038116811461008457600080fd5b9392505050565b612091806200009b6000396000f3fe608060405234801561001057600080fd5b50600436106101515760003560e01c806336568abe116100cd578063a217fddf11610081578063c399f15f11610066578063c399f15f1461032d578063d547741f14610340578063fc0c546a1461035357600080fd5b8063a217fddf14610312578063aefd16d11461031a57600080fd5b80635c622a0e116100b25780635c622a0e1461027157806386b646f2146102b957806391d14854146102db57600080fd5b806336568abe146102375780634a2d5c9d1461024a57600080fd5b80631c681a42116101245780632858c764116101095780632858c764146101fc5780632f2ff15d1461020f578063346193b61461022257600080fd5b80631c681a42146101b2578063248a9ca3146101d957600080fd5b806301ffc9a714610156578063052af7081461017e5780630d61b51914610188578063129613841461019b575b600080fd5b610169610164366004611ad9565b61037e565b60405190151581526020015b60405180910390f35b610186610417565b005b610169610196366004611b1b565b610591565b6101a460055481565b604051908152602001610175565b6101a47fffa60083152bd11704a80cc8c7a409dad8aa74288b454a3ba0e94c0abc7cf16881565b6101a46101e7366004611b1b565b60009081526020819052604090206001015490565b61018661020a366004611b1b565b6107e2565b61018661021d366004611b49565b610974565b61022a61099e565b6040516101759190611bd5565b610186610245366004611b49565b610cb6565b6101a47fc7ddcf4441a1bb01353b38db832023115117943d28ad05b882de4ad99e94b8fc81565b61029e61027f366004611b1b565b6000908152600360208190526040909120908101546004909101544292565b60408051938452602084019290925290820152606001610175565b6102cc6102c7366004611b1b565b610d3e565b60405161017593929190611d2d565b6101696102e9366004611b49565b6000918252602082815260408084206001600160a01b0393909316845291905290205460ff1690565b6101a4600081565b610186610328366004611e05565b610e47565b61018661033b366004611e7d565b611156565b61018661034e366004611b49565b611561565b600154610366906001600160a01b031681565b6040516001600160a01b039091168152602001610175565b60007fffffffff0000000000000000000000000000000000000000000000000000000082167f7965db0b00000000000000000000000000000000000000000000000000000000148061041157507f01ffc9a7000000000000000000000000000000000000000000000000000000007fffffffff000000000000000000000000000000000000000000000000000000008316145b92915050565b3360009081527fe03722358a90a2cd9879911ed8c560d93336692e19019cb0ce2a1885155ce75e602052604090205460ff161561049b5760405162461bcd60e51b815260206004820152600e60248201527f416c7265616479204d656d62657200000000000000000000000000000000000060448201526064015b60405180910390fd5b6001546040516370a0823160e01b81523360048201526032916001600160a01b0316906370a082319060240160206040518083038186803b1580156104df57600080fd5b505afa1580156104f3573d6000803e3d6000fd5b505050506040513d601f19601f820116820180604052508101906105179190611e9f565b10156105655760405162461bcd60e51b815260206004820152601060248201527f4e6f20656e6f75676820746f6b656e20000000000000000000000000000000006044820152606401610492565b61058f7fffa60083152bd11704a80cc8c7a409dad8aa74288b454a3ba0e94c0abc7cf16833611586565b565b3360009081527fe03722358a90a2cd9879911ed8c560d93336692e19019cb0ce2a1885155ce75e602052604081205460ff1661060f5760405162461bcd60e51b815260206004820152601660248201527f596f7520617265206e6f7420417574686f72697a6564000000000000000000006044820152606401610492565b600082815260036020526040902060098101546301000000900460ff161580156106445750600981015462010000900460ff16155b6106905760405162461bcd60e51b815260206004820152601a60248201527f50726f6365737320686173206265656e20636f6d706c657465640000000000006044820152606401610492565b6009810154610100900460ff166106e95760405162461bcd60e51b815260206004820152600a60248201527f4e6f7420717565756564000000000000000000000000000000000000000000006044820152606401610492565b60015460068201546040517fa9059cbb0000000000000000000000000000000000000000000000000000000081526001600160a01b0391821660048201526032602482015291169063a9059cbb90604401602060405180830381600087803b15801561075457600080fd5b505af1158015610768573d6000803e3d6000fd5b505050506040513d601f19601f8201168201806040525081019061078c9190611eb8565b5060098101805462ff000019166201000017905560068101546107d9907fffa60083152bd11704a80cc8c7a409dad8aa74288b454a3ba0e94c0abc7cf168906001600160a01b0316611586565b50600192915050565b3360009081527fe03722358a90a2cd9879911ed8c560d93336692e19019cb0ce2a1885155ce75e602052604090205460ff166108605760405162461bcd60e51b815260206004820152601660248201527f596f7520617265206e6f7420417574686f72697a6564000000000000000000006044820152606401610492565b600081815260036020526040902060098101546301000000900460ff161580156108955750600981015462010000900460ff16155b6108e15760405162461bcd60e51b815260206004820152601a60248201527f50726f6365737320686173206265656e20636f6d706c657465640000000000006044820152606401610492565b600981015460ff166109355760405162461bcd60e51b815260206004820152601860248201527f566f74696e67206e6f742079657420436f6d706c6574656400000000000000006044820152606401610492565b80600801548160070154111561095a5760098101805461ff0019166101001790555050565b60098101805463ff000000191663010000001790555b5050565b60008281526020819052604090206001015461098f81611590565b610999838361159d565b505050565b606060008060055467ffffffffffffffff8111156109be576109be611d62565b604051908082528060200260200182016040528015610a7457816020015b610a61604051806101a00160405280600081526020016060815260200160608152602001600081526020016000815260200160006001600160a01b0316815260200160006001600160a01b0316815260200160008152602001600081526020016000151581526020016000151581526020016000151581526020016000151581525090565b8152602001906001900390816109dc5790505b50905060005b600554811015610caf576000610a91826001611ef0565b9050600060036000838152602001908152602001600020905080604051806101a001604052908160008201548152602001600182018054610ad190611f08565b80601f0160208091040260200160405190810160405280929190818152602001828054610afd90611f08565b8015610b4a5780601f10610b1f57610100808354040283529160200191610b4a565b820191906000526020600020905b815481529060010190602001808311610b2d57829003601f168201915b50505050508152602001600282018054610b6390611f08565b80601f0160208091040260200160405190810160405280929190818152602001828054610b8f90611f08565b8015610bdc5780601f10610bb157610100808354040283529160200191610bdc565b820191906000526020600020905b815481529060010190602001808311610bbf57829003601f168201915b5050509183525050600382015460208201526004820154604082015260058201546001600160a01b0390811660608301526006830154166080820152600782015460a0820152600882015460c082015260099091015460ff808216151560e08401526101008083048216151590840152620100008204811615156101208401526301000000909104161515610140909101528451859087908110610c8257610c82611f43565b6020908102919091010152610c98600186611ef0565b945050508080610ca790611f59565b915050610a7a565b5092915050565b6001600160a01b0381163314610d345760405162461bcd60e51b815260206004820152602f60248201527f416363657373436f6e74726f6c3a2063616e206f6e6c792072656e6f756e636560448201527f20726f6c657320666f722073656c6600000000000000000000000000000000006064820152608401610492565b610970828261163b565b600081815260036020908152604080832060029092528220600882015460078301546060938493909290918691610d7491611ef0565b905080826001018360020181805480602002602001604051908101604052809291908181526020018280548015610dd457602002820191906000526020600020905b81546001600160a01b03168152600190910190602001808311610db6575b5050505050915080805480602002602001604051908101604052809291908181526020018280548015610e3057602002820191906000526020600020905b81546001600160a01b03168152600190910190602001808311610e12575b505050505090509550955095505050509193909250565b3360009081527fe03722358a90a2cd9879911ed8c560d93336692e19019cb0ce2a1885155ce75e602052604090205460ff16610ec55760405162461bcd60e51b815260206004820152601660248201527f596f7520617265206e6f7420417574686f72697a6564000000000000000000006044820152606401610492565b6001546040516370a0823160e01b81523360048201526064916001600160a01b0316906370a082319060240160206040518083038186803b158015610f0957600080fd5b505afa158015610f1d573d6000803e3d6000fd5b505050506040513d601f19601f82011682018060405250810190610f419190611e9f565b1015610f8f5760405162461bcd60e51b815260206004820152601160248201527f4e6f7420656e6f75676820546f6b656e730000000000000000000000000000006044820152606401610492565b60058054906000610f9f83611f59565b9091555050604080516101a08101825260055481526020810185905290810183905260608101610fd0600142611ef0565b8152602001610fe16101f442611ef0565b8152336020808301919091526001600160a01b0384166040808401919091526000606084018190526080840181905260a0840181905260c0840181905260e0840181905261010090930183905260055483526003825290912082518155828201518051919261105892600185019290910190611a40565b5060408201518051611074916002840191602090910190611a40565b50606082015160038201556080820151600482015560a08201516005820180546001600160a01b0392831673ffffffffffffffffffffffffffffffffffffffff199182161790915560c084015160068401805491909316911617905560e082015160078201556101008083015160088301556101208301516009909201805461014085015161016086015161018090960151151563010000000263ff0000001996151562010000029690961663ffff00001991151590940261ff00199515159590951661ffff1990921691909117939093179290921617919091179055505050565b3360009081527fe03722358a90a2cd9879911ed8c560d93336692e19019cb0ce2a1885155ce75e602052604090205460ff166111d45760405162461bcd60e51b815260206004820152601660248201527f596f7520617265206e6f7420417574686f72697a6564000000000000000000006044820152606401610492565b6001546040516370a0823160e01b81523360048201526032916001600160a01b0316906370a082319060240160206040518083038186803b15801561121857600080fd5b505afa15801561122c573d6000803e3d6000fd5b505050506040513d601f19601f820116820180604052508101906112509190611e9f565b101561129e5760405162461bcd60e51b815260206004820152601160248201527f4e6f7420656e6f75676820546f6b656e730000000000000000000000000000006044820152606401610492565b6000828152600360208190526040909120908101544210156113025760405162461bcd60e51b815260206004820152601660248201527f566f74696e67204e6f74205965742053746172746564000000000000000000006044820152606401610492565b80600401544211156113705760098101805460ff19166001179055600481015442116109995760405162461bcd60e51b815260206004820152601060248201527f566f74696e6720697320436c6f736564000000000000000000000000000000006044820152606401610492565b611379336116ba565b3360009081526004602052604090205460ff16156113d95760405162461bcd60e51b815260206004820152600d60248201527f416c726561647920566f746564000000000000000000000000000000000000006044820152606401610492565b60008381526002602052604080822060015491517f9ab24eb00000000000000000000000000000000000000000000000000000000081523360048201529092916001600160a01b031690639ab24eb09060240160206040518083038186803b15801561144457600080fd5b505afa158015611458573d6000803e3d6000fd5b505050506040513d601f19601f8201168201806040525081019061147c9190611e9f565b9050836114ef57808360070160008282546114979190611ef0565b909155505060018083018054808301825560009182526020808320909101805473ffffffffffffffffffffffffffffffffffffffff19163390811790915582526004905260409020805460ff1916909117905561155a565b808360080160008282546115039190611ef0565b90915550506002820180546001818101835560009283526020808420909201805473ffffffffffffffffffffffffffffffffffffffff191633908117909155835260049091526040909120805460ff191690911790555b5050505050565b60008281526020819052604090206001015461157c81611590565b610999838361163b565b610970828261159d565b61159a81336117da565b50565b6000828152602081815260408083206001600160a01b038516845290915290205460ff16610970576000828152602081815260408083206001600160a01b03851684529091529020805460ff191660011790556115f73390565b6001600160a01b0316816001600160a01b0316837f2f8788117e7eff1d82e926ec794901d17c78024a50270940304540a733656f0d60405160405180910390a45050565b6000828152602081815260408083206001600160a01b038516845290915290205460ff1615610970576000828152602081815260408083206001600160a01b0385168085529252808320805460ff1916905551339285917ff6391f5c32d9c69d2a47ea670b442974b53935d1edc7fd64eb21e047a839171b9190a45050565b6001546040517f587cde1e0000000000000000000000000000000000000000000000000000000081526001600160a01b038381166004830152600092169063587cde1e9060240160206040518083038186803b15801561171957600080fd5b505afa15801561172d573d6000803e3d6000fd5b505050506040513d601f19601f820116820180604052508101906117519190611f74565b9050816001600160a01b0316816001600160a01b0316146109705760405162461bcd60e51b815260206004820152602b60248201527f596f7520686176652044656c656761746520796f757220566f746520546f207360448201527f6f6d656f6e6520656c73650000000000000000000000000000000000000000006064820152608401610492565b6000828152602081815260408083206001600160a01b038516845290915290205460ff1661097057611816816001600160a01b03166014611858565b611821836020611858565b604051602001611832929190611f91565b60408051601f198184030181529082905262461bcd60e51b825261049291600401612012565b60606000611867836002612025565b611872906002611ef0565b67ffffffffffffffff81111561188a5761188a611d62565b6040519080825280601f01601f1916602001820160405280156118b4576020820181803683370190505b5090507f3000000000000000000000000000000000000000000000000000000000000000816000815181106118eb576118eb611f43565b60200101906001600160f81b031916908160001a9053507f78000000000000000000000000000000000000000000000000000000000000008160018151811061193657611936611f43565b60200101906001600160f81b031916908160001a905350600061195a846002612025565b611965906001611ef0565b90505b60018111156119ea577f303132333435363738396162636465660000000000000000000000000000000085600f16601081106119a6576119a6611f43565b1a60f81b8282815181106119bc576119bc611f43565b60200101906001600160f81b031916908160001a90535060049490941c936119e381612044565b9050611968565b508315611a395760405162461bcd60e51b815260206004820181905260248201527f537472696e67733a20686578206c656e67746820696e73756666696369656e746044820152606401610492565b9392505050565b828054611a4c90611f08565b90600052602060002090601f016020900481019282611a6e5760008555611ab4565b82601f10611a8757805160ff1916838001178555611ab4565b82800160010185558215611ab4579182015b82811115611ab4578251825591602001919060010190611a99565b50611ac0929150611ac4565b5090565b5b80821115611ac05760008155600101611ac5565b600060208284031215611aeb57600080fd5b81357fffffffff0000000000000000000000000000000000000000000000000000000081168114611a3957600080fd5b600060208284031215611b2d57600080fd5b5035919050565b6001600160a01b038116811461159a57600080fd5b60008060408385031215611b5c57600080fd5b823591506020830135611b6e81611b34565b809150509250929050565b60005b83811015611b94578181015183820152602001611b7c565b83811115611ba3576000848401525b50505050565b60008151808452611bc1816020860160208601611b79565b601f01601f19169290920160200192915050565b60006020808301818452808551808352604092508286019150828160051b87010184880160005b83811015611cdb57603f1989840301855281516101a08151855288820151818a870152611c2b82870182611ba9565b9150508782015185820389870152611c438282611ba9565b606084810151908801526080808501519088015260a0808501516001600160a01b039081169189019190915260c0808601519091169088015260e080850151908801526101008085015190880152610120808501511515908801526101408085015115159088015261016080850151151590880152610180938401511515939096019290925250509386019390860190600101611bfc565b509098975050505050505050565b600081518084526020808501945080840160005b83811015611d225781516001600160a01b031687529582019590820190600101611cfd565b509495945050505050565b838152606060208201526000611d466060830185611ce9565b8281036040840152611d588185611ce9565b9695505050505050565b634e487b7160e01b600052604160045260246000fd5b600082601f830112611d8957600080fd5b813567ffffffffffffffff80821115611da457611da4611d62565b604051601f8301601f19908116603f01168101908282118183101715611dcc57611dcc611d62565b81604052838152866020858801011115611de557600080fd5b836020870160208301376000602085830101528094505050505092915050565b600080600060608486031215611e1a57600080fd5b833567ffffffffffffffff80821115611e3257600080fd5b611e3e87838801611d78565b94506020860135915080821115611e5457600080fd5b50611e6186828701611d78565b9250506040840135611e7281611b34565b809150509250925092565b60008060408385031215611e9057600080fd5b50508035926020909101359150565b600060208284031215611eb157600080fd5b5051919050565b600060208284031215611eca57600080fd5b81518015158114611a3957600080fd5b634e487b7160e01b600052601160045260246000fd5b60008219821115611f0357611f03611eda565b500190565b600181811c90821680611f1c57607f821691505b60208210811415611f3d57634e487b7160e01b600052602260045260246000fd5b50919050565b634e487b7160e01b600052603260045260246000fd5b6000600019821415611f6d57611f6d611eda565b5060010190565b600060208284031215611f8657600080fd5b8151611a3981611b34565b7f416363657373436f6e74726f6c3a206163636f756e7420000000000000000000815260008351611fc9816017850160208801611b79565b7f206973206d697373696e6720726f6c65200000000000000000000000000000006017918401918201528351612006816028840160208801611b79565b01602801949350505050565b602081526000611a396020830184611ba9565b600081600019048311821515161561203f5761203f611eda565b500290565b60008161205357612053611eda565b50600019019056fea2646970667358221220f0cfe554a9e287933b565600ece60cad74cb1bfb3d2826bc54407ee570a8eee564736f6c63430008090033",
  "linkReferences": {},
  "deployedLinkReferences": {}
}